:020000040800F2
:10000000D006002089010008391B0008451A0008A5
:10001000351B000891020008E11E000800000000E6
:10002000000000000000000000000000F11D0008BA
:100030004D03000800000000A91B0008491E00082D
:10004000A3010008A3010008A3010008A301000800
:10005000A3010008A3010008A3010008A3010008F0
:10006000A3010008A3010008A3010008A3010008E0
:10007000A3010008A3010008A3010008A3010008D0
:10008000A3010008A3010008A3010008A3010008C0
:10009000A3010008A3010008A3010008A3010008B0
:1000A000A3010008A3010008A3010008A3010008A0
:1000B000A3010008A3010008A3010008A301000890
:1000C000A3010008A3010008A3010008A301000880
:1000D000A3010008A3010008A3010008A301000870
:1000E000A3010008A3010008A301000800F002F822
:1000F00000F03AF80AA090E8000C82448344AAF188
:100100000107DA4501D100F02FF8AFF2090EBAE885
:100110000F0013F0010F18BFFB1A43F0010318473B
:10012000281F0000481F0000103A24BF78C878C17B
:10013000FAD8520724BF30C830C144BF04680C60ED
:10014000704700000023002400250026103A28BF35
:1001500078C1FBD8520728BF30C148BF0B60704739
:100160001FB51FBD10B510BD00F058F81146FFF7C0
:10017000F7FF01F047FF00F076F803B4FFF7F2FF56
:1001800003BC00F07DF8000009488047094800479B
:10019000FEE7FEE7FEE7FEE7FEE7FEE7FEE7FEE737
:1001A000FEE7FEE704480549054A064B7047000094
:1001B000BD1E0008ED000008D0000020D006002081
:1001C000D0020020D00200204FF0000200B51346FC
:1001D00094469646203922BFA0E80C50A0E80C5067
:1001E000B1F12001BFF4F7AF090728BFA0E80C5018
:1001F00048BF0CC05DF804EB890028BF40F8042B11
:1002000008BF704748BF20F8022B11F0804F18BF7D
:1002100000F8012B7047704770477047754600F033
:100220002BF8AE4605006946534620F00700854688
:1002300018B020B5FFF7B6FFBDE820404FF000062C
:100240004FF000074FF000084FF0000BAC46ACE851
:10025000C009ACE8C009ACE8C009ACE8C00921F0AD
:1002600007018D46704710B50446AFF30080204665
:10027000BDE81040FFF781BF004870471000002024
:1002800001491820ABBEFEE72600020070470000BF
:10029000FFE7FEE780B540F60000C4F20100102140
:1002A000012200F06DFA80BD80B540F60000C4F276
:1002B00001001021002200F063FA80BD80B582B0F9
:1002C0008DF807009DF8070000F08CF88DF8060007
:1002D0009DF806001A2837DCFFE79DF8070000F0BC
:1002E0008BF88DF805009DF8050040F27001C2F210
:1002F00000010978884226D0FFE71F2000F072F83D
:100300008DF80400FFF7D0FF9DF80410052001F0E0
:10031000F9FD032001F0E6FDFFF7BCFFFFF7C4FF86
:100320009DF80410042001F0EDFD9DF8050001F09A
:10033000D9FDFFF7AFFF9DF8050040F27001C2F252
:1003400000010870FFE7FFE702B080BD70470000C2
:1003500080B586B040F60000C4F20100019008218B
:1003600002910122039200F00BFA3220049000F077
:1003700055F801980299039A00F002FA049800F0E7
:100380004DF801F09DFDEA2001F048FC40F2040028
:10039000C2F2000005900178E42001F0CBFD059841
:1003A0004178E52001F0C6FD05988178E22001F052
:1003B000C1FD0598C178E32001F0BCFD05980179E5
:1003C000E02001F0B7FD05984179E12001F0B2FD90
:1003D00006B080BD81B0EFF3108072B60090FFE7E9
:1003E000FEE7000081B08DF803009DF8030000F0E7
:1003F0001F0001B07047000081B08DF803009DF828
:100400000300C0F3411001B07047000081B08DF8C7
:1004100003009DF80300C00901B0704780B584B0A7
:10042000039000F0C5F90290039801900198013003
:1004300048B1FFE740F20A00C2F2000001780198DB
:1004400008440190FFE7FFE700F0B2F90299401A73
:100450000199884201D2FFE7F6E704B080BD0000B1
:1004600090B00F900E9100200D900990FFE70E982C
:1004700000680D99C840002800F07F81FFE70D99C2
:10048000012088400C900E9800680C9908400B9051
:100490000B980C99884240F06C81FFE70E984068F9
:1004A0000590002851D0FFE7059801283AD0FFE7D2
:1004B000059802283FD0FFE7059803285FD0FFE7A3
:1004C0000598112832D0FFE70598122838D0FFE7A9
:1004D00005980021C1F21101884236D0FFE7059846
:1004E0000021C1F2120188422FD0FFE705980021B8
:1004F000C1F22101884228D0FFE705980021C1F20E
:100500002201884221D0FFE705980021C1F2310184
:1005100088421AD0FFE705980021C1F232018842D3
:1005200013D02FE00E98C06809902CE00E98C06898
:100530000430099027E00E98C0680830099022E046
:100540000E98C0680C3009901DE00E98806818B9AC
:10055000FFE70420099011E00E988068012806D179
:10056000FFE7082009900C980F99086105E0082022
:1005700009900C980F994861FFE7FFE703E000201E
:10058000099000E0FFE70B98FF2803D8FFE70F98DA
:10059000049003E00F9804300490FFE7049808905B
:1005A0000B98FF2804D8FFE70D988000039006E021
:1005B0000D996FF01F0000EB81000390FFE7039897
:1005C000079008980068079A0F219140884309997D
:1005D00091400843089908600E98C079C006002829
:1005E00040F1C680FFE7FFE741F21800C4F20200C5
:1005F000016841F001010160006800F0010006900F
:100600000698FFE70D9820F003000821C4F20101CD
:1006100040580A900D9800F0030081000F2000FA66
:1006200001F10A9888430A900F9840F60001C4F23D
:100630000101884203D1FFE70020029026E00F98D5
:1006400040F60041C4F20101884203D1FFE70120D6
:10065000019018E00F9841F20001C4F201018842B4
:1006600003D1FFE7022000900AE00F9941F2004217
:10067000C4F201020420914208BF03200090FFE76A
:1006800000980190FFE701980290FFE702980D990A
:1006900001F00301890000FA01F10A9808430A9069
:1006A0000A980D9921F003010822C4F20102885032
:1006B0000E988079C006002809D5FFE70B9A40F212
:1006C0000841C4F2010108681043086008E00B9A71
:1006D00040F20841C4F20101086890430860FFE756
:1006E0000E9880798006002809D5FFE70B9A40F222
:1006F0000C41C4F2010108681043086008E00B9A3D
:1007000040F20C41C4F20101086890430860FFE721
:100710000E9880798007002809D5FFE70B9A40F2F0
:100720000441C4F2010108681043086008E00B9A14
:1007300040F20441C4F20101086890430860FFE7F9
:100740000E988079C00748B1FFE70B9A40F200414C
:10075000C4F2010108681043086008E00B9A40F2F7
:100760000041C4F20101086890430860FFE7FFE719
:10077000FFE70D9801300D9079E610B0704700004A
:1007800082B00190ADF802108DF801209DF80100B3
:1007900028B1FFE7BDF802000199086105E0BDF846
:1007A0000200000401990861FFE702B070470000F1
:1007B00040F2CC00C2F200000068704740F20A002C
:1007C000C2F20000027840F2CC01C2F200010868D7
:1007D000104408607047000080B542F20001C4F286
:1007E0000201086840F010000860032000F07CF867
:1007F0000F2000F005F800F03BF8002080BD00005D
:1008000080B582B0009040F20000C2F200000068A3
:1008100040F20A01C2F200010A784FF47A71B1FB8A
:10082000F2F1B0FBF1F001F005F920B1FFE7012092
:100830008DF8070018E000980F280DD8FFE7009901
:100840004FF0FF30002200F035F8009840F20C0124
:10085000C2F20001086003E001208DF8070003E008
:1008600000208DF80700FFE79DF8070002B080BD6B
:1008700082B0FFE741F21800C4F20200016841F0C3
:1008800001010160006800F0010001900198FFE79C
:10089000FFE741F21C00C4F20200016841F0805100
:1008A0000160006800F0805000900098FFE702B0FF
:1008B0007047000080B586B08DF817000491039250
:1008C0000020029001F056FB02909DF91700019064
:1008D00002980499039A01F031F90146019801F058
:1008E00051FB06B080BD000080B582B00190019838
:1008F00001F06AFB02B080BD80B584B00290019126
:10090000029820B9FFE701208DF80F001BE1019844
:1009100042F20001C4F20201096801F007018842B5
:1009200016D9FFE742F20000C4F20200016821F08C
:100930000701019A11430160006800F00700019966
:10094000884204D0FFE701208DF80F00FBE0FFE7AD
:1009500002980078800700282AD5FFE702980078DF
:100960004007002809D5FFE741F20401C4F2020163
:10097000086840F4E0600860FFE70298007800072C
:10098000002809D5FFE741F20401C4F2020108681A
:1009900040F460500860FFE741F20401C4F2020134
:1009A000086820F0F000029A926810430860FFE7A0
:1009B00002980078C007002860D0FFE702984068DE
:1009C00001280ED1FFE741F20000C4F202000068E6
:1009D0008003002804D4FFE701208DF80F00B2E067
:1009E00021E00298406802280ED1FFE741F20000A2
:1009F000C4F2020000688001002804D4FFE701204F
:100A00008DF80F009FE00DE041F20000C4F20200FB
:100A100000688007002804D4FFE701208DF80F004C
:100A200091E0FFE7FFE741F20401C4F20201086828
:100A300020F00300029A526810430860FFF7B8FEE6
:100A40000090FFE741F20400C4F20200006800F0E9
:100A50000C0002994968B0EB810F0ED0FFE7FFF759
:100A6000A7FE0099401A41F28931884204D3FFE77A
:100A700003208DF80F0066E0E4E7FFE7019842F2FB
:100A80000001C4F20201096801F00701884216D290
:100A9000FFE742F20000C4F20200016821F0070102
:100AA000019A11430160006800F007000199884233
:100AB00004D0FFE701208DF80F0044E0FFE7029823
:100AC0000078400700280CD5FFE741F20401C4F28A
:100AD0000201086820F4E060029AD26810430860BE
:100AE000FFE702980078000700280DD5FFE741F2E4
:100AF0000401C4F20201086820F46050029A1269ED
:100B000040EAC2000860FFE700F022F841F2040169
:100B1000C4F202010968C9B20A0942F22401C0F60E
:100B20000001895CC84040F20001C2F20001086087
:100B300040F20C00C2F200000068FFF761FE0020E6
:100B40008DF80F00FFE79DF80F0004B080BD000096
:100B500086B000200590049003900290019041F22D
:100B60000400C4F2020000680590059800F00C0033
:100B70000146009100283FD0FFE70098042804D0E8
:100B8000FFE70098082806D037E041F20020C0F2C5
:100B90007A00019037E00598C0F3834142F23400B7
:100BA000C0F60000405C02909DF81600C007C0B17E
:100BB000FFE741F20400C4F202000068C0F34041C4
:100BC00042F24400C0F60000405C0490029841F2FA
:100BD0000021C0F27A0148430499B0FBF1F0039080
:100BE00007E0029840F60011C0F23D01484303902F
:100BF000FFE70398019006E0FFE741F20020C0F212
:100C00007A000190FFE7019806B0704780B586B082
:100C10000490049820B9FFE701208DF817002EE317
:100C200004980078C007002800F0AE80FFE741F28A
:100C30000400C4F20200006800F00C00042813D085
:100C4000FFE741F20400C4F20200006800F00C006B
:100C500008281BD1FFE741F20400C4F2020000683B
:100C6000C003002812D5FFE741F20000C4F20200E1
:100C700000688003002808D5FFE70498406820B981
:100C8000FFE701208DF81700F9E27CE0FFE7049808
:100C90004068B0F5803F09D1FFE741F20001C4F29E
:100CA0000201086840F48030086032E0049840682F
:100CB00068B9FFE741F20001C4F20201086820F4BC
:100CC00080300860086820F48020086020E00498E4
:100CD0004068B0F5A02F0DD1FFE741F20001C4F24A
:100CE0000201086840F480200860086840F4803001
:100CF00008600CE041F20001C4F20201086820F42F
:100D000080300860086820F480200860FFE7FFE773
:100D1000FFE7FFE704984068D0B1FFE7FFF748FD21
:100D20000390FFE741F20000C4F202000068800374
:100D300000280CD4FFE7FFF73BFD0399401A652814
:100D400004D3FFE703208DF8170098E2EAE719E0E3
:100D5000FFF72EFD0390FFE741F20000C4F202000E
:100D60000068800300280CD5FFE7FFF721FD0399F9
:100D7000401A652804D3FFE703208DF817007EE2B0
:100D8000EAE7FFE7FFE7FFE704980078800700281D
:100D900040F18D80FFE741F20400C4F202000068D8
:100DA00010F00C0F13D0FFE741F20400C4F2020070
:100DB000006800F00C00082829D1FFE741F2040088
:100DC000C4F202000068C003002820D4FFE741F20B
:100DD0000000C4F2020000688007002809D5FFE780
:100DE00004980069012804D0FFE701208DF817005E
:100DF00045E241F20001C4F20201086820F0F80067
:100E0000049A526940EAC2000860FFE74EE0049885
:100E1000006958B3FFE70021C4F2422101200860B5
:100E2000FFF7C6FC0390FFE741F20000C4F20200A6
:100E30000068800700280CD4FFE7FFF7B9FC03998E
:100E4000401A032804D3FFE703208DF8170016E2A9
:100E5000EAE741F20001C4F20201086820F0F8005C
:100E6000049A526940EAC20008601EE00021C4F200
:100E7000422100200860FFF79BFC0390FFE741F24E
:100E80000000C4F202000068800700280CD5FFE7CC
:100E9000FFF78EFC0399401A032804D3FFE70320D1
:100EA0008DF81700EBE1EAE7FFE7FFE7FFE70498BB
:100EB00000780007002848D5FFE70498806918B338
:100EC000FFE740F28041C4F2422101200860FFF7B1
:100ED0006FFC0390FFE741F22400C4F202000068B7
:100EE000800700280CD4FFE7FFF762FC0399401A43
:100EF000032804D3FFE703208DF81700BFE1EAE7DA
:100F0000012000F053FE1FE040F28041C4F2422174
:100F100000200860FFF74CFC0390FFE741F224003B
:100F2000C4F202000068800700280CD5FFE7FFF735
:100F30003FFC0399401A032804D3FFE703208DF8F0
:100F400017009CE1EAE7FFE7FFE704980078400715
:100F5000002840F1D880FFE700208DF8070041F21B
:100F60001C00C4F202000068C000002813D4FFE790
:100F7000FFE741F21C00C4F20200016841F0805119
:100F80000160006800F0805000900098FFE70120A9
:100F90008DF80700FFE747F20000C4F20000006888
:100FA000C005002822D4FFE747F20001C4F2000187
:100FB000086840F480700860FFF7FAFB0390FFE7D1
:100FC00047F20000C4F200000068C00500280CD4FD
:100FD000FFE7FFF7EDFB0399401A652804D3FFE70D
:100FE00003208DF817004AE1EAE7FFE7FFE70498DE
:100FF000C068012809D1FFE741F22001C4F20201D3
:10100000086840F00100086031E00498C06868B9E1
:10101000FFE741F22001C4F20201086820F001005C
:101020000860086820F0040008601FE00498C068A9
:1010300005280DD1FFE741F22001C4F20201086842
:1010400040F004000860086840F0010008600CE00F
:1010500041F22001C4F20201086820F0010008609A
:10106000086820F004000860FFE7FFE7FFE7FFE7FC
:101070000498C068E0B1FFE7FFF79AFB0390FFE731
:1010800041F22000C4F202000068800700280ED45C
:10109000FFE7FFF78DFB0399401A41F2893188423F
:1010A00004D3FFE703208DF81700E8E0E8E71BE032
:1010B000FFF77EFB0390FFE741F22000C4F202003D
:1010C0000068800700280ED5FFE7FFF771FB039942
:1010D000401A41F28931884204D3FFE703208DF89A
:1010E0001700CCE0E8E7FFE79DF80700012809D1E9
:1010F000FFE741F21C01C4F20201086820F08050B1
:101100000860FFE7FFE70498C069002800F0B3809B
:10111000FFE741F20400C4F20200006800F00C0096
:10112000082800F08280FFE70498C06902285CD19B
:10113000FFE76021C4F2422100200860FFF738FB7E
:101140000390FFE741F20000C4F202000068800152
:1011500000280CD5FFE7FFF72BFB0399401A032863
:1011600004D3FFE703208DF8170088E0EAE704982E
:10117000006AB0F5803F0CD1FFE741F20401C4F2F0
:101180000201086820F40030049A92681043086055
:10119000FFE741F20401C4F20201086820F4741070
:1011A000049B1A6A5B6A1A43104308606021C4F208
:1011B000422101200860FFF7FBFA0390FFE741F2AC
:1011C0000000C4F202000068800100280CD4FFE790
:1011D000FFF7EEFA0399401A032804D3FFE7032030
:1011E0008DF817004BE0EAE71EE06021C4F24221CF
:1011F00000200860FFF7DCFA0390FFE741F20000EF
:10120000C4F202000068800100280CD5FFE7FFF758
:10121000CFFA0399401A032804D3FFE703208DF87F
:1012200017002CE0EAE7FFE724E00498C0690128F2
:1012300004D1FFE701208DF8170020E041F20400FF
:10124000C4F2020000680290029800F48030049911
:10125000096A884208D1FFE7029800F470100499E7
:10126000496A884204D0FFE701208DF8170006E0A4
:10127000FFE7FFE7FFE700208DF81700FFE79DF885
:10128000170006B080BD000080B584B002900298BF
:1012900020B9FFE701208DF80F006DE00298406A49
:1012A00060B9FFE702984068B0F5827F01D1FFE79F
:1012B00003E002990020C861FFE705E002990020E1
:1012C000086102994861FFE702990020886202984C
:1012D00090F8510040B9FFE70299002081F85000D2
:1012E000029800F04DF8FFE70299022081F85100C2
:1012F00002980168086820F040000860029A019294
:1013000011685068D2F808C0D36800F482700CF4F9
:10131000044C604403F400631844136903F00203AF
:101320001844536903F001031844936903F40073EC
:101330001844D36903F038031844136A03F0800398
:101340001843926A02F40052104308600299488BD5
:1013500000F004000968486002980168C86920F438
:101360000060C861029900204865029A012182F854
:1013700051108DF80F00FFE79DF80F0004B080BDFD
:1013800080B58AB0099000200890079006900590DB
:101390000998006843F20001C4F20101884237D184
:1013A000FFE7FFE741F21800C4F20200016841F4D0
:1013B00080510160006800F4805004900498FFE7B9
:1013C000FFE741F21800C4F20200016841F0040195
:1013D0000160006800F0040003900398FFE7A0207C
:1013E0000590022006900320089040F60000C4F209
:1013F0000100019005A90291FFF732F801980299C6
:1014000040220592002206920792FFF729F8FFE793
:101410000AB080BD80B588B006900591ADF8122065
:10142000039300208DF80700FFE7069890F850001E
:10143000012804D1FFE702208DF81F0031E1069951
:10144000012081F85000FFE7FFE7FFF7B1F90290B4
:10145000BDF81200ADF80400069890F8510001287C
:1014600004D0FFE702208DF807000FE1059820B1B6
:10147000FFE7BDF8120020B9FFE701208DF8070053
:1014800004E10699032081F851000699002048657F
:101490000599069A1163BDF81210069A9186BDF857
:1014A0001210069AD186069988630699888706994C
:1014B000C887069948640699086406988068B0F55C
:1014C000004F0DD1FFE706980168086820F0400042
:1014D000086006980168086840F480400860FFE7EB
:1014E00006980068006800F04000402807D0FFE739
:1014F00006980168086840F040000860FFE7069819
:10150000C068B0F5006F4BD1FFE70698406828B17E
:10151000FFE7BDF8040001280ED1FFE70698016837
:10152000006B0088C8600699086B02300863069952
:10153000C88E0138C886FFE7FFE70698C08E70B3F3
:10154000FFE7069800688068800700280ED5FFE74F
:1015500006980168006B0088C8600699086B023025
:1015600008630699C88E0138C88617E0FFF720F98E
:101570000299401A0399884204D3FFE70398013087
:1015800018B9FFE7039840B9FFE703208DF807007B
:101590000699012081F8510078E0FFE7CDE74AE0A5
:1015A0000698406828B1FFE7BDF8040001280ED175
:1015B000FFE706980168006B007808730699086BCE
:1015C000013008630699C88E0138C886FFE7FFE737
:1015D0000698C08E70B3FFE70698006880688007A1
:1015E00000280ED5FFE706980168006B00780873A5
:1015F0000699086B013008630699C88E0138C886C1
:1016000017E0FFF7D5F80299401A0399884204D3EE
:10161000FFE70398013018B9FFE7039840B9FFE7E7
:1016200003208DF807000699012081F851002DE074
:10163000FFE7CDE7FFE706980399029A00F020FB49
:1016400020B1FFE7069920204865FFE706988068EB
:1016500070B9FFE7FFE70020009006980068C068B7
:10166000009006980068806800900098FFE7FFE708
:101670000698406D20B1FFE701208DF8070004E0D7
:101680000699012081F85100FFE7FFE7FFE706997F
:10169000002081F85000FFE79DF807008DF81F003B
:1016A000FFE79DF81F0008B080BD000080B58EB038
:1016B000DDF840C00C900B910A92ADF82630012065
:1016C000059000208DF81300FFE70C9890F850006B
:1016D000012804D1FFE702208DF83700A6E10C991C
:1016E000012081F85000FFE7FFE7FFF761F806905F
:1016F0000C9890F851008DF81F000C9840680890E5
:10170000BDF82600ADF824009DF81F00012812D076
:10171000FFE70898B0F5827F09D1FFE70C98806851
:1017200028B9FFE79DF81F00042804D0FFE7022036
:101730008DF813006FE10B9838B1FFE70A9820B1DC
:10174000FFE7BDF8260020B9FFE701208DF8130060
:1017500061E10C9890F85100042805D0FFE70C993E
:10176000052081F85100FFE70C99002048650A998F
:101770000C9A9163BDF826100C9AD187BDF82610FB
:101780000C9A91870B990C9A1163BDF826100C9A4C
:10179000D186BDF826100C9A91860C9908640C9994
:1017A00048640C980068006800F04000402807D0AA
:1017B000FFE70C980168086840F040000860FFE708
:1017C0000C98C068B0F5006F7AD1FFE70C984068BC
:1017D00028B1FFE7BDF8240001280ED1FFE70C98DF
:1017E0000168006B0088C8600C99086B02300863C0
:1017F0000C99C88E0138C886FFE7FFE70C98C18EA8
:101800000120029039B9FFE70C98C08F002818BF5B
:1018100001200290FFE70298C00700284FD0FFE7A1
:101820000C98006880688007002818D5FFE70C989E
:10183000C08EA0B1FFE70598012810D1FFE70C98F2
:101840000168006B0088C8600C99086B023008635F
:101850000C99C88E0138C88600200590FFE70C98C7
:1018600000688068C007A8B1FFE70C98C08F88B1F6
:10187000FFE70C980068C0680C99896B08800C9988
:10188000886B023088630C99C88F0138C8870120A3
:101890000590FFE7FEF78CFF0699401A10998842E1
:1018A0000CD3FFE71098013040B1FFE703208DF81B
:1018B00013000C99012081F85100ACE09EE77CE018
:1018C0000C98406828B1FFE7BDF8240001280ED12C
:1018D000FFE70C980168006B007808730C99086B9F
:1018E000013008630C99C88E0138C886FFE7FFE70E
:1018F0000C98C18E0120019039B9FFE70C98C08F78
:10190000002818BF01200190FFE70198C0070028B8
:1019100052D0FFE70C98006880688007002818D52F
:10192000FFE70C98C08EA0B1FFE70598012810D101
:10193000FFE70C980168006B007808730C99086B3E
:10194000013008630C99C88E0138C88600200590C4
:10195000FFE70C9800688068C007A8B1FFE70C9803
:10196000C08F88B1FFE70C980068C0680C99896B3C
:1019700008700C99886B013088630C99C88F013806
:10198000C88701200590FFE7FEF712FF0699401A6D
:101990001099884204D3FFE71098013018B9FFE787
:1019A000109840B9FFE703208DF813000C9901202F
:1019B00081F851002FE09BE7FFE70C981099069AF9
:1019C00000F05EF938B1FFE701208DF813000C99A3
:1019D000202048651FE00C98806870B9FFE7FFE79A
:1019E000002003900C980068C06803900C98006871
:1019F000806803900398FFE7FFE70C98406D20B1E3
:101A0000FFE701208DF8130004E00C99012081F814
:101A10005100FFE7FFE7FFE70C99002081F8500035
:101A2000FFE79DF813008DF83700FFE79DF83700BA
:101A30000EB080BD80B582B00190019800F0DAF957
:101A400002B080BDFFE7FEE780B58AB000200990B4
:101A5000089007900690FFE741F21800C4F20200D8
:101A6000016841F010010160006800F0100005906D
:101A70000598FFE7FFE741F21800C4F20200016891
:101A800041F020010160006800F0200004900498FB
:101A9000FFE7FFE741F21800C4F20200016841F0DD
:101AA00004010160006800F0040003900398FFE760
:101AB00040F60000C4F201000290182100910122BA
:101AC0000192FEF75DFE009A019902980692079135
:101AD000002108910221099106A9FEF7C1FC0AB074
:101AE00080BD000080B582B040F27400C2F20000F8
:101AF000019043F20001C4F2010101604FF48271D0
:101B0000416000218160C160016141614FF4007258
:101B100082612022C2610162416281620A21C16246
:101B2000FFF7B2FB18B1FFE7FEF754FCFFE702B086
:101B300080BD0000FFE7FEE7FFE7FEE788B0079003
:101B400006910592079800F0070004900498C0F1F0
:101B50000700052803D3FFE70420019004E0049860
:101B6000C0F107000190FFE701980390049804304A
:101B7000062803D8FFE70020009003E0049803380C
:101B80000090FFE70098029006980399012202FA5C
:101B900001F101390840029B984005999A40013AA9
:101BA0001140084308B070477047000082B00190B0
:101BB000019840F20001C2F200010968C90844F628
:101BC000D352C1F26202A1FB02218909484300906D
:101BD000FFE700BFFFE70098411E00910028F8D101
:101BE000FFE702B07047000080B582B000208DF89A
:101BF00007008DF8060069460A20086040F274006C
:101C0000C2F200000DF107010DF106020123FFF7FA
:101C10004DFD9DF8060002B080BD000080B582B089
:101C20008DF80700002000908DF806009DF8070051
:101C3000FEF7ECFB8DF805009DF80700FEF7D2FBE0
:101C40008DF804009DF80700FEF738FBFEF72CFB2B
:101C500000989DF8041000F055F99DF80500012842
:101C600003D1FFE7FFF7C0FFFFE7FFF7BDFF8DF8E8
:101C70000600FEF70FFB9DF8060002B080BD0000D5
:101C800080B586B00490039102920498039B029958
:101C90006A4611608021002200F014F848B1FFE785
:101CA0000499486D40F02000486503208DF8170026
:101CB00003E000208DF81700FFE79DF8170006B03D
:101CC00080BD000080B58AB0DDF830C00890079173
:101CD0008DF81B20059305980190FEF769FD0246DB
:101CE00001980C99891A08440390FEF761FD02904F
:101CF000039840F20001C2F200010968C1F3CB3140
:101D000048430490FFE708980068806807990840F6
:101D1000401AB0FA80F040099DF81B1088425ED04E
:101D2000FFE705980130002858D0FFE7FEF740FD97
:101D30000299401A0399884204D2FFE703980028C9
:101D400042D1FFE708980168486820F0E000486049
:101D500008984068B0F5827F13D1FFE70898806843
:101D6000B0F5004F06D0FFE708988068B0F5806FA7
:101D700007D1FFE708980168086820F04000086074
:101D8000FFE70898806AB0F5005F0FD1FFE7FFE733
:101D900008980168086820F40050086008980168F5
:101DA000086840F400500860FFE7FFE70899012049
:101DB00081F85100FFE70899002081F85000FFE703
:101DC00003208DF827000EE0049818B9FFE70020E3
:101DD0000390FFE7049801380490FFE793E70020A1
:101DE0008DF82700FFE79DF827000AB080BD0000AE
:101DF0007047000080B582B0009000980138B0F1C3
:101E0000807F03D3FFE70120019019E0009801389B
:101E10004EF21401CEF2000108604FF0FF300F21A6
:101E200000F0B0F84EF21801CEF200010020086078
:101E30004EF21002CEF20002072111600190FFE77E
:101E4000019802B080BD000080B5FEF7B7FC80BDF0
:101E500080B590B006A800902821FEF7B5F900984B
:101E600000230593049303930293019301220692A6
:101E70004FF48031079108930A9202220D920E913D
:101E80004FF400210F91FEF7C1FE18B1FFE7FEF7F6
:101E9000A1FAFFE70F20019002200290002003909A
:101EA0000490059001A80121FEF726FD18B1FFE777
:101EB000FEF790FAFFE710B080BD00007047000009
:101EC00080B5FEF7F1F906201F2100F01BF8FEF7A0
:101ED000E1F940F27001C2F200010020087080BDFB
:101EE000FFE7FEE780B582B08DF8070040F274008E
:101EF000C2F200000DF1070101220A23FFF78AFA5E
:101F000002B080BD80B582B08DF807008DF8061054
:101F100000208DF805009DF807109DF8060040EAA6
:101F200041108DF805009DF80500FFF7DBFF02B0BA
:101F300080BD000080B582B08DF807008DF80610D6
:101F40009DF80700FEF74EFA8DF805009DF8070092
:101F5000FEF7B4F9FEF7A8F99DF805100220FFF787
:101F6000D1FF9DF80600FFF7BDFFFEF793F902B021
:101F700080BD00004EF60C50CEF200000068C0F3A9
:101F80000220704782B08DF8070000919DF907008C
:101F900000280AD4FFE7009800019DF907104EF2CF
:101FA0000042CEF2000288540BE0009800019DF838
:101FB000071001F00F014EF61452CEF200028854C1
:101FC000FFE702B07047000083B00290029800F073
:101FD000070000904EF60C51CEF200010868019007
:101FE00001984FF6FF02104001900198009A40EAD4
:101FF00002200022C0F2FA521043019001980860BA
:1020000003B0704780B582B000200190FEF7E4FB7A
:10201000FFF71EFFFFF718FDFFF764FDFEF798F9C5
:10202000FFE7FEE7000000000000000001020304DB
:102030000607080902030405060708090A0B0C0D28
:102040000E0F1010010200006820000800000020A0
:10205000100000002801000878200008100000206F
:10206000C0060000440100080024F400001722ED1F
:08207000A501010010000000B1
:04000005080000ED02
:00000001FF
